{"abi":[{"type":"function","name":"addressToString","inputs":[{"name":"_signer","type":"address","internalType":"address"}],"outputs":[{"name":"","type":"string","internalType":"string"}],"stateMutability":"pure"},{"type":"function","name":"attestationEncode","inputs":[{"name":"attestation","type":"tuple","internalType":"struct Attestation","components":[{"name":"recipient","type":"address","internalType":"address"},{"name":"request","type":"tuple","internalType":"struct AttNetworkRequest","components":[{"name":"url","type":"string","internalType":"string"},{"name":"header","type":"string","internalType":"string"},{"name":"method","type":"string","internalType":"string"},{"name":"body","type":"string","internalType":"string"}]},{"name":"reponse","type":"tuple[]","internalType":"struct AttNetworkResponseResolve[]","components":[{"name":"keyName","type":"string","internalType":"string"},{"name":"parseType","type":"string","internalType":"string"},{"name":"parsePath","type":"string","internalType":"string"}]},{"name":"data","type":"string","internalType":"string"},{"name":"attParameters","type":"string","internalType":"string"},{"name":"timestamp","type":"uint64","internalType":"uint64"},{"name":"attestors","type":"tuple[]","internalType":"struct Attestor[]","components":[{"name":"attestorAddr","type":"string","internalType":"string"},{"name":"url","type":"string","internalType":"string"}]},{"name":"signature","type":"bytes","internalType":"bytes"}]}],"outputs":[{"name":"","type":"bytes32","internalType":"bytes32"}],"stateMutability":"pure"},{"type":"function","name":"attestationEncode1","inputs":[{"name":"attestation","type":"tuple","internalType":"struct Attestation","components":[{"name":"recipient","type":"address","internalType":"address"},{"name":"request","type":"tuple","internalType":"struct AttNetworkRequest","components":[{"name":"url","type":"string","internalType":"string"},{"name":"header","type":"string","internalType":"string"},{"name":"method","type":"string","internalType":"string"},{"name":"body","type":"string","internalType":"string"}]},{"name":"reponse","type":"tuple[]","internalType":"struct AttNetworkResponseResolve[]","components":[{"name":"keyName","type":"string","internalType":"string"},{"name":"parseType","type":"string","internalType":"string"},{"name":"parsePath","type":"string","internalType":"string"}]},{"name":"data","type":"string","internalType":"string"},{"name":"attParameters","type":"string","internalType":"string"},{"name":"timestamp","type":"uint64","internalType":"uint64"},{"name":"attestors","type":"tuple[]","internalType":"struct Attestor[]","components":[{"name":"attestorAddr","type":"string","internalType":"string"},{"name":"url","type":"string","internalType":"string"}]},{"name":"signature","type":"bytes","internalType":"bytes"}]}],"outputs":[{"name":"","type":"bytes32","internalType":"bytes32"}],"stateMutability":"pure"},{"type":"function","name":"bytesToHexString","inputs":[{"name":"data","type":"bytes","internalType":"bytes"}],"outputs":[{"name":"","type":"string","internalType":"string"}],"stateMutability":"pure"},{"type":"function","name":"encodeRequest","inputs":[{"name":"request","type":"tuple","internalType":"struct AttNetworkRequest","components":[{"name":"url","type":"string","internalType":"string"},{"name":"header","type":"string","internalType":"string"},{"name":"method","type":"string","internalType":"string"},{"name":"body","type":"string","internalType":"string"}]}],"outputs":[{"name":"","type":"bytes32","internalType":"bytes32"}],"stateMutability":"pure"},{"type":"function","name":"encodeRequest1","inputs":[{"name":"request","type":"tuple","internalType":"struct AttNetworkRequest","components":[{"name":"url","type":"string","internalType":"string"},{"name":"header","type":"string","internalType":"string"},{"name":"method","type":"string","internalType":"string"},{"name":"body","type":"string","internalType":"string"}]}],"outputs":[{"name":"","type":"bytes32","internalType":"bytes32"}],"stateMutability":"pure"},{"type":"function","name":"encodeResponse","inputs":[{"name":"reponse","type":"tuple[]","internalType":"struct AttNetworkResponseResolve[]","components":[{"name":"keyName","type":"string","internalType":"string"},{"name":"parseType","type":"string","internalType":"string"},{"name":"parsePath","type":"string","internalType":"string"}]}],"outputs":[{"name":"","type":"bytes32","internalType":"bytes32"}],"stateMutability":"pure"},{"type":"function","name":"encodeResponse1","inputs":[{"name":"reponse","type":"tuple[]","internalType":"struct AttNetworkResponseResolve[]","components":[{"name":"keyName","type":"string","internalType":"string"},{"name":"parseType","type":"string","internalType":"string"},{"name":"parsePath","type":"string","internalType":"string"}]}],"outputs":[{"name":"","type":"bytes32","internalType":"bytes32"}],"stateMutability":"pure"},{"type":"function","name":"owner","inputs":[],"outputs":[{"name":"","type":"address","internalType":"address"}],"stateMutability":"view"},{"type":"function","name":"renounceOwnership","inputs":[],"outputs":[],"stateMutability":"nonpayable"},{"type":"function","name":"transferOwnership","inputs":[{"name":"newOwner","type":"address","internalType":"address"}],"outputs":[],"stateMutability":"nonpayable"},{"type":"function","name":"verifyAttestation","inputs":[{"name":"attestation","type":"tuple","internalType":"struct Attestation","components":[{"name":"recipient","type":"address","internalType":"address"},{"name":"request","type":"tuple","internalType":"struct AttNetworkRequest","components":[{"name":"url","type":"string","internalType":"string"},{"name":"header","type":"string","internalType":"string"},{"name":"method","type":"string","internalType":"string"},{"name":"body","type":"string","internalType":"string"}]},{"name":"reponse","type":"tuple[]","internalType":"struct AttNetworkResponseResolve[]","components":[{"name":"keyName","type":"string","internalType":"string"},{"name":"parseType","type":"string","internalType":"string"},{"name":"parsePath","type":"string","internalType":"string"}]},{"name":"data","type":"string","internalType":"string"},{"name":"attParameters","type":"string","internalType":"string"},{"name":"timestamp","type":"uint64","internalType":"uint64"},{"name":"attestors","type":"tuple[]","internalType":"struct Attestor[]","components":[{"name":"attestorAddr","type":"string","internalType":"string"},{"name":"url","type":"string","internalType":"string"}]},{"name":"signature","type":"bytes","internalType":"bytes"}]}],"outputs":[{"name":"","type":"bool","internalType":"bool"}],"stateMutability":"pure"},{"type":"event","name":"Initialized","inputs":[{"name":"version","type":"uint64","indexed":false,"internalType":"uint64"}],"anonymous":false},{"type":"event","name":"OwnershipTransferred","inputs":[{"name":"previousOwner","type":"address","indexed":true,"internalType":"address"},{"name":"newOwner","type":"address","indexed":true,"internalType":"address"}],"anonymous":false},{"type":"error","name":"InvalidInitialization","inputs":[]},{"type":"error","name":"NotInitializing","inputs":[]},{"type":"error","name":"OwnableInvalidOwner","inputs":[{"name":"owner","type":"address","internalType":"address"}]},{"type":"error","name":"OwnableUnauthorizedAccount","inputs":[{"name":"account","type":"address","internalType":"address"}]},{"type":"error","name":"StringsInsufficientHexLength","inputs":[{"name":"value","type":"uint256","internalType":"uint256"},{"name":"length","type":"uint256","internalType":"uint256"}]}],"bytecode":{"object":"0x6080604052348015600e575f80fd5b506115168061001c5f395ff3fe608060405234801561000f575f80fd5b50600436106100b1575f3560e01c8063715018a61161006e578063715018a6146101575780637d520c22146101615780638da5cb5b14610174578063bfff3afe146101ae578063ea831850146101c1578063f2fde38b146101d4575f80fd5b80630dc0a1a8146100b5578063128dd696146100db5780633ec7ed50146100ee578063525f3de6146101115780635e57966d1461012457806363bf3b9e14610144575b5f80fd5b6100c86100c3366004610e5d565b6101e7565b6040519081526020015b60405180910390f35b6100c86100e9366004610e5d565b6102c9565b6101016100fc366004610ecc565b610399565b60405190151581526020016100d2565b6100c861011f366004610ecc565b6106c6565b610137610132366004610f0b565b610755565b6040516100d29190610f5f565b6100c8610152366004610ecc565b61076b565b61015f6107db565b005b61013761016f366004610f85565b6107ee565b7f9016d09d72d40fdae2fd8ceac6b6234c7706214fd39c1cd1e609a0528c199300546040516001600160a01b0390911681526020016100d2565b6100c86101bc366004611030565b610963565b6100c86101cf366004611030565b6109ad565b61015f6101e2366004610f0b565b6109f7565b5f60605f5b838110156102b7578185858381811061020757610207611067565b9050602002810190610219919061107b565b6102239080611099565b87878581811061023557610235611067565b9050602002810190610247919061107b565b610255906020810190611099565b89898781811061026757610267611067565b9050602002810190610279919061107b565b610287906040810190611099565b60405160200161029d97969594939291906110e3565b60408051601f1981840301815291905291506001016101ec565b50805160209091012090505b92915050565b5f60605f5b838110156102b757818585838181106102e9576102e9611067565b90506020028101906102fb919061107b565b6103059080611099565b87878581811061031757610317611067565b9050602002810190610329919061107b565b610337906020810190611099565b89898781811061034957610349611067565b905060200281019061035b919061107b565b610369906040810190611099565b60405160200161037f9796959493929190611149565b60408051601f1981840301815291905291506001016102ce565b5f806103a860e0840184611099565b8080601f0160208091040260200160405190810160405280939291908181526020018383808284375f9201919091525050825192935050604190911490506104375760405162461bcd60e51b815260206004820152601860248201527f496e76616c6964207369676e6174757265206c656e677468000000000000000060448201526064015b60405180910390fd5b6020810151604082015160608301515f1a601b81148061045a57508060ff16601c145b6104a65760405162461bcd60e51b815260206004820152601960248201527f496e76616c6964207369676e617475726520762076616c756500000000000000604482015260640161042e565b60408051808201909152600f81526e1c8e89590b081cce8959081d8e8959608a1b60208201526104db90848460ff8516610a34565b5f5b6104ea60c08801886111a6565b90508110156106ba575f61056961050460c08a018a6111a6565b8481811061051457610514611067565b905060200281019061052691906111ec565b6105309080611099565b8080601f0160208091040260200160405190810160405280939291908181526020018383808284375f92019190915250610a8392505050565b905061059e6040518060400160405280601181526020017063757272656e74416464722d2d2d2d257360781b81525082610b67565b6001600160a01b0381166105ea5760405162461bcd60e51b815260206004820152601360248201527224b73b30b634b21030ba3a32b9ba30ba34b7b760691b604482015260640161042e565b5f60016105f68a6106c6565b604080515f8152602081018083529290925260ff871690820152606081018890526080810187905260a0016020604051602081039080840390855afa158015610641573d5f803e3d5ffd5b505050602060405103519050610688604051806040016040528060118152602001706174746573746f72416464722d2d2d257360781b81525061068383610755565b610bb0565b816001600160a01b0316816001600160a01b0316036106b05750600198975050505050505050565b50506001016104dd565b505f9695505050505050565b5f806106d56020840184610f0b565b6106e56101cf6020860186611200565b6106f56100e960408701876111a6565b6107026060870187611099565b61070f6080890189611099565b61071f60c08b0160a08c01611214565b60405160200161073698979695949392919061123b565b60408051601f1981840301815291905280516020909101209392505050565b60606102c3826001600160a01b03166014610bf5565b5f8061077a6020840184610f0b565b61078a6101cf6020860186611200565b61079a6100e960408701876111a6565b6107a76060870187611099565b6107b46080890189611099565b6107c460c08b0160a08c01611214565b60405160200161073698979695949392919061129b565b6107e3610d6f565b6107ec5f610dca565b565b60408051808201909152601081526f181899199a1a9b1b9c1cb0b131b232b360811b60208201528151606091905f90610828906002611313565b67ffffffffffffffff81111561084057610840610f71565b6040519080825280601f01601f19166020018201604052801561086a576020820181803683370190505b5090505f5b845181101561095b575f85828151811061088b5761088b611067565b0160200151845160f882901c9250859160fc1c9081106108ad576108ad611067565b01602001516001600160f81b031916836108c8846002611313565b815181106108d8576108d8611067565b60200101906001600160f81b03191690815f1a9053508381600f1660ff168151811061090657610906611067565b01602001516001600160f81b03191683610921846002611313565b61092c90600161132a565b8151811061093c5761093c611067565b60200101906001600160f81b03191690815f1a9053505060010161086f565b509392505050565b5f8061096f8380611099565b61097c6020860186611099565b6109896040880188611099565b61099660608a018a611099565b60405160200161073698979695949392919061133d565b5f806109b98380611099565b6109c66020860186611099565b6109d36040880188611099565b6109e060608a018a611099565b604051602001610736989796959493929190611376565b6109ff610d6f565b6001600160a01b038116610a2857604051631e4fbdf760e01b81525f600482015260240161042e565b610a3181610dca565b50565b610a7d84848484604051602401610a4e94939291906113d5565b60408051601f198184030181529190526020810180516001600160e01b031663a7a8785360e01b179052610e3a565b50505050565b5f818160025b602a81101561095b575f838281518110610aa557610aa5611067565b016020015160f81c905060308110801590610ac4575060398160ff1611155b15610af357610ad4603082611403565b60ff16610ae284601061141c565b610aec919061144e565b9250610b5e565b60618160ff1610158015610b0b575060668160ff1611155b15610b1b57610ad4605782611403565b60418160ff1610158015610b33575060468160ff1611155b15610b5e57610b43603782611403565b60ff16610b5184601061141c565b610b5b919061144e565b92505b50600101610a89565b610bac8282604051602401610b7d929190611475565b60408051601f198184030181529190526020810180516001600160e01b031663319af33360e01b179052610e3a565b5050565b610bac8282604051602401610bc692919061149e565b60408051601f198184030181529190526020810180516001600160e01b0316634b5c427760e01b179052610e3a565b6060825f610c04846002611313565b610c0f90600261132a565b67ffffffffffffffff811115610c2757610c27610f71565b6040519080825280601f01601f191660200182016040528015610c51576020820181803683370190505b509050600360fc1b815f81518110610c6b57610c6b611067565b60200101906001600160f81b03191690815f1a905350600f60fb1b81600181518110610c9957610c99611067565b60200101906001600160f81b03191690815f1a9053505f610cbb856002611313565b610cc690600161132a565b90505b6001811115610d3d576f181899199a1a9b1b9c1cb0b131b232b360811b83600f1660108110610cfa57610cfa611067565b1a60f81b828281518110610d1057610d10611067565b60200101906001600160f81b03191690815f1a90535060049290921c91610d36816114cb565b9050610cc9565b508115610d675760405163e22e27eb60e01b8152600481018690526024810185905260440161042e565b949350505050565b33610da17f9016d09d72d40fdae2fd8ceac6b6234c7706214fd39c1cd1e609a0528c199300546001600160a01b031690565b6001600160a01b0316146107ec5760405163118cdaa760e01b815233600482015260240161042e565b7f9016d09d72d40fdae2fd8ceac6b6234c7706214fd39c1cd1e609a0528c19930080546001600160a01b031981166001600160a01b03848116918217845560405192169182907f8be0079c531659141344cd1fd0a4f28419497f9722a3daafe3b4186f6b6457e0905f90a3505050565b610a31815f6a636f6e736f6c652e6c6f6790505f80835160208501845afa505050565b5f8060208385031215610e6e575f80fd5b823567ffffffffffffffff80821115610e85575f80fd5b818501915085601f830112610e98575f80fd5b813581811115610ea6575f80fd5b8660208260051b8501011115610eba575f80fd5b60209290920196919550909350505050565b5f60208284031215610edc575f80fd5b813567ffffffffffffffff811115610ef2575f80fd5b82016101008185031215610f04575f80fd5b9392505050565b5f60208284031215610f1b575f80fd5b81356001600160a01b0381168114610f04575f80fd5b5f81518084528060208401602086015e5f602082860101526020601f19601f83011685010191505092915050565b602081525f610f046020830184610f31565b634e487b7160e01b5f52604160045260245ffd5b5f60208284031215610f95575f80fd5b813567ffffffffffffffff80821115610fac575f80fd5b818401915084601f830112610fbf575f80fd5b813581811115610fd157610fd1610f71565b604051601f8201601f19908116603f01168101908382118183101715610ff957610ff9610f71565b81604052828152876020848701011115611011575f80fd5b826020860160208301375f928101602001929092525095945050505050565b5f60208284031215611040575f80fd5b813567ffffffffffffffff811115611056575f80fd5b820160808185031215610f04575f80fd5b634e487b7160e01b5f52603260045260245ffd5b5f8235605e1983360301811261108f575f80fd5b9190910192915050565b5f808335601e198436030181126110ae575f80fd5b83018035915067ffffffffffffffff8211156110c8575f80fd5b6020019150368190038213156110dc575f80fd5b9250929050565b5f88518060208b01845e5f908301908152878982375f908801908152858782375f908601908152838582375f93019283525090979650505050505050565b81835281816020850137505f828201602090810191909152601f909101601f19169091010190565b608081525f61115b608083018a610f31565b828103602084015261116e81898b611121565b90508281036040840152611183818789611121565b90508281036060840152611198818587611121565b9a9950505050505050505050565b5f808335601e198436030181126111bb575f80fd5b83018035915067ffffffffffffffff8211156111d5575f80fd5b6020019150600581901b36038213156110dc575f80fd5b5f8235603e1983360301811261108f575f80fd5b5f8235607e1983360301811261108f575f80fd5b5f60208284031215611224575f80fd5b813567ffffffffffffffff81168114610f04575f80fd5b60018060a01b038916815287602082015286604082015260c060608201525f61126860c083018789611121565b828103608084015261127b818688611121565b91505067ffffffffffffffff831660a08301529998505050505050505050565b6bffffffffffffffffffffffff198960601b168152876014820152866034820152848660548301375f858201605481015f8152858782375060c09390931b6001600160c01b0319166054939094019283019390935250605c01979650505050505050565b634e487b7160e01b5f52601160045260245ffd5b80820281158282048414176102c3576102c36112ff565b808201808211156102c3576102c36112ff565b878982375f8882015f8152878982375f908801908152858782375f908601908152838582375f9301928352509098975050505050505050565b608081525f611389608083018a8c611121565b828103602084015261139c81898b611121565b905082810360408401526113b1818789611121565b905082810360608401526113c6818587611121565b9b9a5050505050505050505050565b608081525f6113e76080830187610f31565b6020830195909552506040810192909252606090910152919050565b60ff82811682821603908111156102c3576102c36112ff565b6001600160a01b03828116828216818102831692918115828504821417611445576114456112ff565b50505092915050565b6001600160a01b0381811683821601908082111561146e5761146e6112ff565b5092915050565b604081525f6114876040830185610f31565b905060018060a01b03831660208301529392505050565b604081525f6114b06040830185610f31565b82810360208401526114c28185610f31565b95945050505050565b5f816114d9576114d96112ff565b505f19019056fea2646970667358221220fd68b40d6e2238ed4042b283a1315170f4d8b1ad07b8602ef5267666abf59b6564736f6c63430008190033","linkReferences":{}},"methodIdentifiers":{"addressToString(address)":"5e57966d","attestationEncode((address,(string,string,string,string),(string,string,string)[],string,string,uint64,(string,string)[],bytes))":"525f3de6","attestationEncode1((address,(string,string,string,string),(string,string,string)[],string,string,uint64,(string,string)[],bytes))":"63bf3b9e","bytesToHexString(bytes)":"7d520c22","encodeRequest((string,string,string,string))":"ea831850","encodeRequest1((string,string,string,string))":"bfff3afe","encodeResponse((string,string,string)[])":"128dd696","encodeResponse1((string,string,string)[])":"0dc0a1a8","owner()":"8da5cb5b","renounceOwnership()":"715018a6","transferOwnership(address)":"f2fde38b","verifyAttestation((address,(string,string,string,string),(string,string,string)[],string,string,uint64,(string,string)[],bytes))":"3ec7ed50"},"id":32}