{"abi":[{"type":"function","name":"_attestors","inputs":[{"name":"","type":"uint256","internalType":"uint256"}],"outputs":[{"name":"attestorAddr","type":"address","internalType":"address"},{"name":"url","type":"string","internalType":"string"}],"stateMutability":"view"},{"type":"function","name":"_attestorsMapping","inputs":[{"name":"","type":"address","internalType":"address"}],"outputs":[{"name":"attestorAddr","type":"address","internalType":"address"},{"name":"url","type":"string","internalType":"string"}],"stateMutability":"view"},{"type":"function","name":"encodeAttestation","inputs":[{"name":"attestation","type":"tuple","internalType":"struct Attestation","components":[{"name":"recipient","type":"address","internalType":"address"},{"name":"request","type":"tuple","internalType":"struct AttNetworkRequest","components":[{"name":"url","type":"string","internalType":"string"},{"name":"header","type":"string","internalType":"string"},{"name":"method","type":"string","internalType":"string"},{"name":"body","type":"string","internalType":"string"}]},{"name":"reponseResolve","type":"tuple[]","internalType":"struct AttNetworkResponseResolve[]","components":[{"name":"keyName","type":"string","internalType":"string"},{"name":"parseType","type":"string","internalType":"string"},{"name":"parsePath","type":"string","internalType":"string"}]},{"name":"data","type":"string","internalType":"string"},{"name":"attConditions","type":"string","internalType":"string"},{"name":"timestamp","type":"uint64","internalType":"uint64"},{"name":"additionParams","type":"string","internalType":"string"},{"name":"attestors","type":"tuple[]","internalType":"struct Attestor[]","components":[{"name":"attestorAddr","type":"address","internalType":"address"},{"name":"url","type":"string","internalType":"string"}]},{"name":"signatures","type":"bytes[]","internalType":"bytes[]"}]}],"outputs":[{"name":"","type":"bytes32","internalType":"bytes32"}],"stateMutability":"pure"},{"type":"function","name":"encodeRequest","inputs":[{"name":"request","type":"tuple","internalType":"struct AttNetworkRequest","components":[{"name":"url","type":"string","internalType":"string"},{"name":"header","type":"string","internalType":"string"},{"name":"method","type":"string","internalType":"string"},{"name":"body","type":"string","internalType":"string"}]}],"outputs":[{"name":"","type":"bytes32","internalType":"bytes32"}],"stateMutability":"pure"},{"type":"function","name":"encodeResponse","inputs":[{"name":"reponse","type":"tuple[]","internalType":"struct AttNetworkResponseResolve[]","components":[{"name":"keyName","type":"string","internalType":"string"},{"name":"parseType","type":"string","internalType":"string"},{"name":"parsePath","type":"string","internalType":"string"}]}],"outputs":[{"name":"","type":"bytes32","internalType":"bytes32"}],"stateMutability":"pure"},{"type":"function","name":"initialize","inputs":[{"name":"_owner","type":"address","internalType":"address"}],"outputs":[],"stateMutability":"nonpayable"},{"type":"function","name":"owner","inputs":[],"outputs":[{"name":"","type":"address","internalType":"address"}],"stateMutability":"view"},{"type":"function","name":"removeAttestor","inputs":[{"name":"attestorAddr","type":"address","internalType":"address"}],"outputs":[],"stateMutability":"nonpayable"},{"type":"function","name":"renounceOwnership","inputs":[],"outputs":[],"stateMutability":"nonpayable"},{"type":"function","name":"setAttestor","inputs":[{"name":"attestor","type":"tuple","internalType":"struct Attestor","components":[{"name":"attestorAddr","type":"address","internalType":"address"},{"name":"url","type":"string","internalType":"string"}]}],"outputs":[],"stateMutability":"nonpayable"},{"type":"function","name":"transferOwnership","inputs":[{"name":"newOwner","type":"address","internalType":"address"}],"outputs":[],"stateMutability":"nonpayable"},{"type":"function","name":"verifyAttestation","inputs":[{"name":"attestation","type":"tuple","internalType":"struct Attestation","components":[{"name":"recipient","type":"address","internalType":"address"},{"name":"request","type":"tuple","internalType":"struct AttNetworkRequest","components":[{"name":"url","type":"string","internalType":"string"},{"name":"header","type":"string","internalType":"string"},{"name":"method","type":"string","internalType":"string"},{"name":"body","type":"string","internalType":"string"}]},{"name":"reponseResolve","type":"tuple[]","internalType":"struct AttNetworkResponseResolve[]","components":[{"name":"keyName","type":"string","internalType":"string"},{"name":"parseType","type":"string","internalType":"string"},{"name":"parsePath","type":"string","internalType":"string"}]},{"name":"data","type":"string","internalType":"string"},{"name":"attConditions","type":"string","internalType":"string"},{"name":"timestamp","type":"uint64","internalType":"uint64"},{"name":"additionParams","type":"string","internalType":"string"},{"name":"attestors","type":"tuple[]","internalType":"struct Attestor[]","components":[{"name":"attestorAddr","type":"address","internalType":"address"},{"name":"url","type":"string","internalType":"string"}]},{"name":"signatures","type":"bytes[]","internalType":"bytes[]"}]}],"outputs":[],"stateMutability":"view"},{"type":"event","name":"AddAttestor","inputs":[{"name":"_address","type":"address","indexed":false,"internalType":"address"},{"name":"_attestor","type":"tuple","indexed":false,"internalType":"struct Attestor","components":[{"name":"attestorAddr","type":"address","internalType":"address"},{"name":"url","type":"string","internalType":"string"}]}],"anonymous":false},{"type":"event","name":"DelAttestor","inputs":[{"name":"_address","type":"address","indexed":false,"internalType":"address"}],"anonymous":false},{"type":"event","name":"Initialized","inputs":[{"name":"version","type":"uint64","indexed":false,"internalType":"uint64"}],"anonymous":false},{"type":"event","name":"OwnershipTransferred","inputs":[{"name":"previousOwner","type":"address","indexed":true,"internalType":"address"},{"name":"newOwner","type":"address","indexed":true,"internalType":"address"}],"anonymous":false},{"type":"error","name":"InvalidInitialization","inputs":[]},{"type":"error","name":"NotInitializing","inputs":[]},{"type":"error","name":"OwnableInvalidOwner","inputs":[{"name":"owner","type":"address","internalType":"address"}]},{"type":"error","name":"OwnableUnauthorizedAccount","inputs":[{"name":"account","type":"address","internalType":"address"}]}],"bytecode":{"object":"0x608060405234801561001057600080fd5b506117eb806100206000396000f3fe608060405234801561001057600080fd5b50600436106100b45760003560e01c80638da5cb5b116100715780638da5cb5b146101435780639ebf19871461017d578063b391202314610190578063c4d66de8146101a3578063ea831850146101b6578063f2fde38b146101c957600080fd5b80630ef77946146100b95780630f8bbf00146100ce578063128dd696146100e157806334c02b521461010757806351022acb1461011a578063715018a61461013b575b600080fd5b6100cc6100c7366004610f90565b6101dc565b005b6100cc6100dc366004610fd1565b610343565b6100f46100ef36600461100c565b6105dd565b6040519081526020015b60405180910390f35b6100f4610115366004610fd1565b6106cb565b61012d610128366004611095565b61076a565b6040516100fe9291906110d6565b6100cc610819565b7f9016d09d72d40fdae2fd8ceac6b6234c7706214fd39c1cd1e609a0528c199300546040516001600160a01b0390911681526020016100fe565b61012d61018b366004611118565b61082d565b6100cc61019e366004611095565b61086c565b6100cc6101b1366004611095565b610ad8565b6100f46101c4366004611131565b610bef565b6100cc6101d7366004611095565b610c3a565b6101e4610c78565b60006101f36020830183611095565b6001600160a01b03160361024e5760405162461bcd60e51b815260206004820152601f60248201527f4174746573746f7220616464726573732063616e6e6f74206265207a65726f0060448201526064015b60405180910390fd5b6000808061025f6020850185611095565b6001600160a01b03908116825260208201929092526040016000205416036102c45760018054808201825560009190915281906002027fb10e2d527612073b26eecdfd717e6a320cf44b4afac2b0732d9fcbe2b7fa0cf6016102c18282611268565b50505b806000806102d56020840184611095565b6001600160a01b0316815260208101919091526040016000206102f88282611268565b507fd3072d0b885ff8b6111c1e2911e1c29a6a908152e39fe175e622a1e8b60f360690506103296020830183611095565b8260405161033892919061137d565b60405180910390a150565b61035161010082018261141d565b905060011461039d5760405162461bcd60e51b8152602060048201526018602482015277092dcecc2d8d2c840e6d2cedcc2e8eae4ca40d8cadccee8d60431b6044820152606401610245565b60006103ad61010083018361141d565b60008181106103be576103be611466565b90506020028101906103d0919061116b565b8080601f01602080910402602001604051908101604052809392919081815260200183838082843760009201919091525050825192935050604190911490506104565760405162461bcd60e51b8152602060048201526018602482015277092dcecc2d8d2c840e6d2cedcc2e8eae4ca40d8cadccee8d60431b6044820152606401610245565b60208101516040820151606083015160001a601b81148061047a57508060ff16601c145b6104c65760405162461bcd60e51b815260206004820152601960248201527f496e76616c6964207369676e617475726520762076616c7565000000000000006044820152606401610245565b600060016104d3876106cb565b6040805160008152602081018083529290925260ff851690820152606081018690526080810185905260a0016020604051602081039080840390855afa158015610521573d6000803e3d6000fd5b50505060206040510351905060005b60015481101561058f5760006001828154811061054f5761054f611466565b60009182526020909120600290910201546001600160a01b039081169150831681900361057c575061058f565b508061058781611492565b915050610530565b60015481106105d45760405162461bcd60e51b8152602060048201526011602482015270496e76616c6964207369676e617475726560781b6044820152606401610245565b50505050505050565b6000606060005b838110156106b957818585838181106105ff576105ff611466565b905060200281019061061191906114ab565b61061b908061116b565b87878581811061062d5761062d611466565b905060200281019061063f91906114ab565b61064d90602081019061116b565b89898781811061065f5761065f611466565b905060200281019061067191906114ab565b61067f90604081019061116b565b60405160200161069597969594939291906114cb565b604051602081830303815290604052915080806106b190611492565b9150506105e4565b50805160209091012090505b92915050565b6000806106db6020840184611095565b6106eb6101c4602086018661150f565b6106fb6100ef604087018761141d565b610708606087018761116b565b610715608089018961116b565b61072560c08b0160a08c01611525565b61073260c08c018c61116b565b60405160200161074b9a9998979695949392919061154e565b60408051601f1981840301815291905280516020909101209392505050565b600060208190529081526040902080546001820180546001600160a01b039092169291610796906111ce565b80601f01602080910402602001604051908101604052809291908181526020018280546107c2906111ce565b801561080f5780601f106107e45761010080835404028352916020019161080f565b820191906000526020600020905b8154815290600101906020018083116107f257829003601f168201915b5050505050905082565b610821610c78565b61082b6000610cd3565b565b6001818154811061083d57600080fd5b6000918252602090912060029091020180546001820180546001600160a01b03909216935090610796906111ce565b610874610c78565b6001600160a01b0381166108ca5760405162461bcd60e51b815260206004820181905260248201527f526563697069656e7420616464726573732063616e6e6f74206265207a65726f6044820152606401610245565b6001600160a01b038181166000908152602081905260409020541661093d5760405162461bcd60e51b815260206004820152602360248201527f4e6f206174746573746f7220666f756e6420666f722074686520726563697069604482015262195b9d60ea1b6064820152608401610245565b6001600160a01b038116600090815260208190526040812080546001600160a01b0319168155906109716001830182610f42565b505060005b600154811015610a9e57816001600160a01b03166001828154811061099d5761099d611466565b60009182526020909120600290910201546001600160a01b031603610a8c57600180546109cb9082906115c1565b815481106109db576109db611466565b9060005260206000209060020201600182815481106109fc576109fc611466565b60009182526020909120825460029092020180546001600160a01b0319166001600160a01b03909216919091178155600180820190610a3d908401826115d4565b509050506001805480610a5257610a526116ae565b60008281526020812060026000199093019283020180546001600160a01b031916815590610a836001830182610f42565b50509055610a9e565b80610a9681611492565b915050610976565b506040516001600160a01b03821681527febcdd228e951f9928af2e663fe9dd701f2a5d55ec49f6f890618b9dc43cf6a2990602001610338565b7ff0c57e16840df040f15088dc2f81fe391c3923bec73e23a9662efc9c229c6a008054600160401b810460ff1615906001600160401b0316600081158015610b1d5750825b90506000826001600160401b03166001148015610b395750303b155b905081158015610b47575080155b15610b655760405163f92ee8a960e01b815260040160405180910390fd5b845467ffffffffffffffff191660011785558315610b8f57845460ff60401b1916600160401b1785555b610b9886610d44565b610ba186610d55565b8315610be757845460ff60401b19168555604051600181527fc7f505b2f371ae2175ee4913f4499e1f2633a7b5936321eed1cdaeb6115181d29060200160405180910390a15b505050505050565b600080610bfc838061116b565b610c09602086018661116b565b610c16604088018861116b565b610c2360608a018a61116b565b60405160200161074b9897969594939291906116c4565b610c42610c78565b6001600160a01b038116610c6c57604051631e4fbdf760e01b815260006004820152602401610245565b610c7581610cd3565b50565b33610caa7f9016d09d72d40fdae2fd8ceac6b6234c7706214fd39c1cd1e609a0528c199300546001600160a01b031690565b6001600160a01b03161461082b5760405163118cdaa760e01b8152336004820152602401610245565b7f9016d09d72d40fdae2fd8ceac6b6234c7706214fd39c1cd1e609a0528c19930080546001600160a01b031981166001600160a01b03848116918217845560405192169182907f8be0079c531659141344cd1fd0a4f28419497f9722a3daafe3b4186f6b6457e090600090a3505050565b610d4c610ef1565b610c7581610f3a565b6001600160a01b038116610d9d5760405162461bcd60e51b815260206004820152600f60248201526e496e76616c6964206164647265737360881b6044820152606401610245565b6040805180820182526001600160a01b0383811680835283518085018552601781527668747470733a2f2f7072696d75736c6162732e78797a2f60481b6020808301919091528085019182526000928352829052939020825181546001600160a01b031916921691909117815591519091906001820190610e1e9082611702565b50506040805180820182526001600160a01b0384811682528251808401909352601783527668747470733a2f2f7072696d75736c6162732e78797a2f60481b602080850191909152820192835260018054808201825560009190915282517fb10e2d527612073b26eecdfd717e6a320cf44b4afac2b0732d9fcbe2b7fa0cf6600290920291820180546001600160a01b031916919093161782559251919350917fb10e2d527612073b26eecdfd717e6a320cf44b4afac2b0732d9fcbe2b7fa0cf70190610eeb9082611702565b50505050565b7ff0c57e16840df040f15088dc2f81fe391c3923bec73e23a9662efc9c229c6a0054600160401b900460ff1661082b57604051631afcd79f60e31b815260040160405180910390fd5b610c42610ef1565b508054610f4e906111ce565b6000825580601f10610f5e575050565b601f016020900490600052602060002090810190610c7591905b80821115610f8c5760008155600101610f78565b5090565b600060208284031215610fa257600080fd5b81356001600160401b03811115610fb857600080fd5b820160408185031215610fca57600080fd5b9392505050565b600060208284031215610fe357600080fd5b81356001600160401b03811115610ff957600080fd5b82016101208185031215610fca57600080fd5b6000806020838503121561101f57600080fd5b82356001600160401b038082111561103657600080fd5b818501915085601f83011261104a57600080fd5b81358181111561105957600080fd5b8660208260051b850101111561106e57600080fd5b60209290920196919550909350505050565b6001600160a01b0381168114610c7557600080fd5b6000602082840312156110a757600080fd5b8135610fca81611080565b60005b838110156110cd5781810151838201526020016110b5565b50506000910152565b60018060a01b038316815260406020820152600082518060408401526111038160608501602087016110b2565b601f01601f1916919091016060019392505050565b60006020828403121561112a57600080fd5b5035919050565b60006020828403121561114357600080fd5b81356001600160401b0381111561115957600080fd5b820160808185031215610fca57600080fd5b6000808335601e1984360301811261118257600080fd5b8301803591506001600160401b0382111561119c57600080fd5b6020019150368190038213156111b157600080fd5b9250929050565b634e487b7160e01b600052604160045260246000fd5b600181811c908216806111e257607f821691505b60208210810361120257634e487b7160e01b600052602260045260246000fd5b50919050565b601f82111561124e57600081815260208120601f850160051c8101602086101561122f5750805b601f850160051c820191505b81811015610be75782815560010161123b565b505050565b600019600383901b1c191660019190911b1790565b813561127381611080565b81546001600160a01b0319166001600160a01b0391909116178155600181810160208481013536869003601e190181126112ac57600080fd5b850180356001600160401b038111156112c457600080fd5b80360383830113156112d557600080fd5b6112e9816112e386546111ce565b86611208565b6000601f821160018114611319576000831561130757508382018501355b6113118482611253565b875550611372565b600086815260209020601f19841690835b828110156113495786850188013582559387019390890190870161132a565b50848210156113685760001960f88660031b161c198785880101351681555b50508683881b0186555b505050505050505050565b6001600160a01b03838116825260406020830152600090833561139f81611080565b166040830152602083013536849003601e190181126113bd57600080fd5b83016020810190356001600160401b038111156113d957600080fd5b8036038213156113e857600080fd5b60406060850152806080850152808260a0860137600060a0828601015260a0601f19601f830116850101925050509392505050565b6000808335601e1984360301811261143457600080fd5b8301803591506001600160401b0382111561144e57600080fd5b6020019150600581901b36038213156111b157600080fd5b634e487b7160e01b600052603260045260246000fd5b634e487b7160e01b600052601160045260246000fd5b6000600182016114a4576114a461147c565b5060010190565b60008235605e198336030181126114c157600080fd5b9190910192915050565b600088516114dd818460208d016110b2565b820187898237600090880190815285878237600090860190815283858237600093019283525090979650505050505050565b60008235607e198336030181126114c157600080fd5b60006020828403121561153757600080fd5b81356001600160401b0381168114610fca57600080fd5b6bffffffffffffffffffffffff198b60601b1681528960148201528860348201528688605483013760008782016054810160008152878982375060c086901b6001600160c01b0319166054918801918201528385605c83013760009301605c0192835250909a9950505050505050505050565b818103818111156106c5576106c561147c565b8181036115df575050565b6115e982546111ce565b6001600160401b03811115611600576116006111b8565b6116148161160e84546111ce565b84611208565b6000601f82116001811461164257600083156116305750848201545b61163a8482611253565b8555506116a7565b600085815260209020601f19841690600086815260209020845b8381101561167c578286015482556001958601959091019060200161165c565b508583101561169a5781850154600019600388901b60f8161c191681555b50505060018360011b0184555b5050505050565b634e487b7160e01b600052603160045260246000fd5b878982376000888201600081528789823760009088019081528587823760009086019081528385823760009301928352509098975050505050505050565b81516001600160401b0381111561171b5761171b6111b8565b6117298161160e84546111ce565b602080601f83116001811461175857600084156117465750858301515b6117508582611253565b865550610be7565b600085815260208120601f198616915b8281101561178757888601518255948401946001909101908401611768565b50858210156117a55787850151600019600388901b60f8161c191681555b5050505050600190811b0190555056fea264697066735822122040fa885a525ea98b7dd8f43253646ae788e7bc0c9caae79ef26d6c29b8dd2f0d64736f6c63430008140033","linkReferences":{}},"methodIdentifiers":{"_attestors(uint256)":"9ebf1987","_attestorsMapping(address)":"51022acb","encodeAttestation((address,(string,string,string,string),(string,string,string)[],string,string,uint64,string,(address,string)[],bytes[]))":"34c02b52","encodeRequest((string,string,string,string))":"ea831850","encodeResponse((string,string,string)[])":"128dd696","initialize(address)":"c4d66de8","owner()":"8da5cb5b","removeAttestor(address)":"b3912023","renounceOwnership()":"715018a6","setAttestor((address,string))":"0ef77946","transferOwnership(address)":"f2fde38b","verifyAttestation((address,(string,string,string,string),(string,string,string)[],string,string,uint64,string,(address,string)[],bytes[]))":"0f8bbf00"},"id":45}