{"abi":[{"type":"function","name":"_attestors","inputs":[{"name":"","type":"uint256","internalType":"uint256"}],"outputs":[{"name":"attestorAddr","type":"address","internalType":"address"},{"name":"url","type":"string","internalType":"string"}],"stateMutability":"view"},{"type":"function","name":"_attestorsMapping","inputs":[{"name":"","type":"address","internalType":"address"}],"outputs":[{"name":"attestorAddr","type":"address","internalType":"address"},{"name":"url","type":"string","internalType":"string"}],"stateMutability":"view"},{"type":"function","name":"encodeAttestation","inputs":[{"name":"attestation","type":"tuple","internalType":"struct Attestation","components":[{"name":"recipient","type":"address","internalType":"address"},{"name":"request","type":"tuple","internalType":"struct AttNetworkRequest","components":[{"name":"url","type":"string","internalType":"string"},{"name":"header","type":"string","internalType":"string"},{"name":"method","type":"string","internalType":"string"},{"name":"body","type":"string","internalType":"string"}]},{"name":"reponseResolve","type":"tuple[]","internalType":"struct AttNetworkResponseResolve[]","components":[{"name":"keyName","type":"string","internalType":"string"},{"name":"parseType","type":"string","internalType":"string"},{"name":"parsePath","type":"string","internalType":"string"}]},{"name":"data","type":"string","internalType":"string"},{"name":"attConditions","type":"string","internalType":"string"},{"name":"timestamp","type":"uint64","internalType":"uint64"},{"name":"additionParams","type":"string","internalType":"string"},{"name":"attestors","type":"tuple[]","internalType":"struct Attestor[]","components":[{"name":"attestorAddr","type":"address","internalType":"address"},{"name":"url","type":"string","internalType":"string"}]},{"name":"signatures","type":"bytes[]","internalType":"bytes[]"}]}],"outputs":[{"name":"","type":"bytes32","internalType":"bytes32"}],"stateMutability":"pure"},{"type":"function","name":"encodeRequest","inputs":[{"name":"request","type":"tuple","internalType":"struct AttNetworkRequest","components":[{"name":"url","type":"string","internalType":"string"},{"name":"header","type":"string","internalType":"string"},{"name":"method","type":"string","internalType":"string"},{"name":"body","type":"string","internalType":"string"}]}],"outputs":[{"name":"","type":"bytes32","internalType":"bytes32"}],"stateMutability":"pure"},{"type":"function","name":"encodeResponse","inputs":[{"name":"reponse","type":"tuple[]","internalType":"struct AttNetworkResponseResolve[]","components":[{"name":"keyName","type":"string","internalType":"string"},{"name":"parseType","type":"string","internalType":"string"},{"name":"parsePath","type":"string","internalType":"string"}]}],"outputs":[{"name":"","type":"bytes32","internalType":"bytes32"}],"stateMutability":"pure"},{"type":"function","name":"initialize","inputs":[{"name":"_owner","type":"address","internalType":"address"}],"outputs":[],"stateMutability":"nonpayable"},{"type":"function","name":"owner","inputs":[],"outputs":[{"name":"","type":"address","internalType":"address"}],"stateMutability":"view"},{"type":"function","name":"removeAttestor","inputs":[{"name":"attestorAddr","type":"address","internalType":"address"}],"outputs":[],"stateMutability":"nonpayable"},{"type":"function","name":"renounceOwnership","inputs":[],"outputs":[],"stateMutability":"nonpayable"},{"type":"function","name":"setAttestor","inputs":[{"name":"attestor","type":"tuple","internalType":"struct Attestor","components":[{"name":"attestorAddr","type":"address","internalType":"address"},{"name":"url","type":"string","internalType":"string"}]}],"outputs":[],"stateMutability":"nonpayable"},{"type":"function","name":"transferOwnership","inputs":[{"name":"newOwner","type":"address","internalType":"address"}],"outputs":[],"stateMutability":"nonpayable"},{"type":"function","name":"verifyAttestation","inputs":[{"name":"attestation","type":"tuple","internalType":"struct Attestation","components":[{"name":"recipient","type":"address","internalType":"address"},{"name":"request","type":"tuple","internalType":"struct AttNetworkRequest","components":[{"name":"url","type":"string","internalType":"string"},{"name":"header","type":"string","internalType":"string"},{"name":"method","type":"string","internalType":"string"},{"name":"body","type":"string","internalType":"string"}]},{"name":"reponseResolve","type":"tuple[]","internalType":"struct AttNetworkResponseResolve[]","components":[{"name":"keyName","type":"string","internalType":"string"},{"name":"parseType","type":"string","internalType":"string"},{"name":"parsePath","type":"string","internalType":"string"}]},{"name":"data","type":"string","internalType":"string"},{"name":"attConditions","type":"string","internalType":"string"},{"name":"timestamp","type":"uint64","internalType":"uint64"},{"name":"additionParams","type":"string","internalType":"string"},{"name":"attestors","type":"tuple[]","internalType":"struct Attestor[]","components":[{"name":"attestorAddr","type":"address","internalType":"address"},{"name":"url","type":"string","internalType":"string"}]},{"name":"signatures","type":"bytes[]","internalType":"bytes[]"}]}],"outputs":[],"stateMutability":"view"},{"type":"event","name":"AddAttestor","inputs":[{"name":"_address","type":"address","indexed":false,"internalType":"address"},{"name":"_attestor","type":"tuple","indexed":false,"internalType":"struct Attestor","components":[{"name":"attestorAddr","type":"address","internalType":"address"},{"name":"url","type":"string","internalType":"string"}]}],"anonymous":false},{"type":"event","name":"DelAttestor","inputs":[{"name":"_address","type":"address","indexed":false,"internalType":"address"}],"anonymous":false},{"type":"event","name":"Initialized","inputs":[{"name":"version","type":"uint64","indexed":false,"internalType":"uint64"}],"anonymous":false},{"type":"event","name":"OwnershipTransferred","inputs":[{"name":"previousOwner","type":"address","indexed":true,"internalType":"address"},{"name":"newOwner","type":"address","indexed":true,"internalType":"address"}],"anonymous":false},{"type":"error","name":"InvalidInitialization","inputs":[]},{"type":"error","name":"NotInitializing","inputs":[]},{"type":"error","name":"OwnableInvalidOwner","inputs":[{"name":"owner","type":"address","internalType":"address"}]},{"type":"error","name":"OwnableUnauthorizedAccount","inputs":[{"name":"account","type":"address","internalType":"address"}]}],"bytecode":{"object":"0x608080604052346100165761169b908161001b8239f35b5f80fdfe60806040526004361015610011575f80fd5b5f3560e01c80630ef77946146100d45780630f8bbf00146100cf578063128dd696146100ca57806334c02b52146100c557806351022acb146100c0578063715018a6146100bb5780638da5cb5b146100b65780639ebf1987146100b1578063b3912023146100ac578063c4d66de8146100a7578063ea831850146100a25763f2fde38b1461009d575f80fd5b6109e2565b6109a4565b610874565b610723565b6106e3565b61065e565b6105f2565b6105a1565b6103eb565b61037e565b610250565b3461021a5760031960203682011261021a57600435906001600160401b03821161021a5760409082600401923603011261021a57610110610a11565b803561011b81610406565b6001600160a01b0316156101d5578061018f61018361017661015d7fd3072d0b885ff8b6111c1e2911e1c29a6a908152e39fe175e622a1e8b60f360695610d68565b6001600160a01b03165f90815260208190526040902090565b546001600160a01b031690565b6001600160a01b031690565b156101c7575b6101aa816101a561015d82610d68565b610da7565b6101b381610d68565b6101c260405192839283610ecf565b0390a1005b6101d081610ea0565b610195565b60405162461bcd60e51b815260206004820152601f60248201527f4174746573746f7220616464726573732063616e6e6f74206265207a65726f006044820152606490fd5b5f80fd5b6003199060208183011261021a57600435916001600160401b03831161021a57826101209203011261021a5760040190565b3461021a576102db60206102633661021e565b61029b61029461028e610100840161028860016102808388611231565b905014611266565b84611231565b906112b2565b36916112c6565b906102a96041835114611266565b8282015161030260606040850151940151935f968795861a94601b86148015610374575b6102d69061130b565b611410565b92604051948594859094939260ff6060936080840197845216602083015260408201520152565b838052039060015afa1561036f5780516001546001600160a01b0390911690825b818110610339575b610336925010611362565b80f35b610356610183610348836106a6565b50546001600160a01b031690565b831461036a5761036590611057565b610323565b61032b565b611357565b50601c86146102cd565b3461021a57602036600319011261021a576001600160401b0360043581811161021a573660238201121561021a57806004013591821161021a573660248360051b8301011161021a576103e79160246103d79201611568565b6040519081529081906020820190565b0390f35b3461021a5760206103fe6102d63661021e565b604051908152f35b6001600160a01b0381160361021a57565b90600182811c92168015610445575b602083101461043157565b634e487b7160e01b5f52602260045260245ffd5b91607f1691610426565b634e487b7160e01b5f52604160045260245ffd5b604081019081106001600160401b0382111761047e57604052565b61044f565b90601f801991011681019081106001600160401b0382111761047e57604052565b9060405191825f8254926104b784610417565b9081845260019485811690815f1461052257506001146104e2575b50506104e092500383610483565b565b909391505f52602090815f20935f915b81831061050a5750506104e093508201015f806104d2565b855488840185015294850194879450918301916104f2565b9150506104e094506020925060ff191682840152151560051b8201015f806104d2565b5f5b8381106105565750505f910152565b8181015183820152602001610547565b909160609260018060a01b03168252604060208301526105958151809281604086015260208686019101610545565b601f01601f1916010190565b3461021a57602036600319011261021a576004356105be81610406565b60018060a01b038091165f525f6020526105e2600160405f209283541692016104a4565b906103e760405192839283610566565b3461021a575f8060031936011261065b5761060b610a11565b5f8051602061162683398151915280546001600160a01b0319811690915581906001600160a01b03167f8be0079c531659141344cd1fd0a4f28419497f9722a3daafe3b4186f6b6457e08280a380f35b80fd5b3461021a575f36600319011261021a575f80516020611626833981519152546040516001600160a01b039091168152602090f35b634e487b7160e01b5f52603260045260245ffd5b6001548110156106de5760015f5260011b7fb10e2d527612073b26eecdfd717e6a320cf44b4afac2b0732d9fcbe2b7fa0cf601905f90565b610692565b3461021a57602036600319011261021a5760043560015481101561021a5761070a906106a6565b5080546001600160a01b0316906105e2906001016104a4565b3461021a57602036600319011261021a5760043561074081610406565b610748610a11565b6001600160a01b0381169061075e821515610f51565b6107876107806101836101768460018060a01b03165f525f60205260405f2090565b1515610f9c565b6001600160a01b0381165f9081526020819052604090206107a790611008565b5f5b6001548082101561084657836107c4610183610348856106a6565b146107d857506107d390611057565b6107a9565b7febcdd228e951f9928af2e663fe9dd701f2a5d55ec49f6f890618b9dc43cf6a2993506101c2929161081e6108176108126108249461106a565b6106a6565b50916106a6565b9061115d565b61082c61119a565b6040516001600160a01b0390911681529081906020820190565b50507febcdd228e951f9928af2e663fe9dd701f2a5d55ec49f6f890618b9dc43cf6a2991506101c29061082c565b3461021a57602036600319011261021a5760043561089181610406565b5f8051602061164683398151915254906001600160401b0360ff8360401c161592168015908161099c575b6001149081610992575b159081610989575b50610977575f80516020611646833981519152805467ffffffffffffffff19166001179055610901908261095357610aba565b61090757005b5f80516020611646833981519152805460ff60401b19169055604051600181527fc7f505b2f371ae2175ee4913f4499e1f2633a7b5936321eed1cdaeb6115181d29080602081016101c2565b5f80516020611646833981519152805460ff60401b1916600160401b179055610aba565b60405163f92ee8a960e01b8152600490fd5b9050155f6108ce565b303b1591506108c6565b8391506108bc565b3461021a5760031960203682011261021a57600435906001600160401b03821161021a57608090823603011261021a576103fe6020916004016114c4565b3461021a57602036600319011261021a57610a0f600435610a0281610406565b610a0a610a11565b610a49565b005b5f80516020611626833981519152546001600160a01b03163303610a3157565b60405163118cdaa760e01b8152336004820152602490fd5b6001600160a01b03908116908115610aa2575f8051602061162683398151915280546001600160a01b031981168417909155167f8be0079c531659141344cd1fd0a4f28419497f9722a3daafe3b4186f6b6457e05f80a3565b604051631e4fbdf760e01b81525f6004820152602490fd5b610ac2610ba9565b610aca610ba9565b610ad381610a49565b6001600160a01b038116908115610b7257610b2290610b1d60405191610af883610463565b848352610b03610bd7565b602084015260018060a01b03165f525f60205260405f2090565b610c7c565b60405190610b2f82610463565b8152610b39610bd7565b6020820152600154600160401b81101561047e57806001610b5d92016001556106a6565b919091610b6d576104e091610c7c565b610c10565b60405162461bcd60e51b815260206004820152600f60248201526e496e76616c6964206164647265737360881b6044820152606490fd5b60ff5f805160206116468339815191525460401c1615610bc557565b604051631afcd79f60e31b8152600490fd5b60405190610be482610463565b601782527f68747470733a2f2f7072696d75736c6162732e78797a2f0000000000000000006020830152565b634e487b7160e01b5f525f60045260245ffd5b818110610c2e575050565b5f8155600101610c23565b9190601f8111610c4857505050565b6104e0925f5260205f20906020601f840160051c83019310610c72575b601f0160051c0190610c23565b9091508190610c65565b815181546001600160a01b0319166001600160a01b0391909116178155600180910191602080910151908151916001600160401b03831161047e57610ccb83610cc58754610417565b87610c39565b81601f8411600114610d0257509282939183925f94610cf7575b50501b915f199060031b1c1916179055565b015192505f80610ce5565b919083601f198116610d17885f5260205f2090565b945f905b88838310610d4e5750505010610d36575b505050811b019055565b01515f1960f88460031b161c191690555f8080610d2c565b858701518855909601959485019487935090810190610d1b565b35610d7281610406565b90565b903590601e198136030182121561021a57018035906001600160401b03821161021a5760200191813603831361021a57565b610dd18235610db581610406565b82546001600160a01b0319166001600160a01b03909116178255565b600180910191610de660209182810190610d75565b91906001600160401b03831161047e57610e0483610cc58754610417565b5f91601f8411600114610e3b57509282939183925f94610e305750501b915f199060031b1c1916179055565b013592505f80610ce5565b9183601f198116610e4f885f5260205f2090565b9483905b88838310610e865750505010610e6d57505050811b019055565b01355f19600384901b60f8161c191690555f8080610d2c565b868601358855909601959384019387935090810190610e53565b600154600160401b81101561047e57806001610ebf92016001556106a6565b919091610b6d576104e091610da7565b6001600160a01b0391821681526040602082015291908135610ef081610406565b1660408301526020810135601e198236030181121561021a570190602082359201916001600160401b03811161021a57803603831361021a578060a09360406060850152816080850152848401375f828201840152601f01601f1916010190565b15610f5857565b606460405162461bcd60e51b815260206004820152602060248201527f526563697069656e7420616464726573732063616e6e6f74206265207a65726f6044820152fd5b15610fa357565b60405162461bcd60e51b815260206004820152602360248201527f4e6f206174746573746f7220666f756e6420666f722074686520726563697069604482015262195b9d60ea1b6064820152608490fd5b634e487b7160e01b5f52601160045260245ffd5b60015f918281550161101a8154610417565b8061102457505050565b82601f821160011461103557505055565b9091808252611053601f60208420940160051c840160018501610c23565b5555565b5f1981146110655760010190565b610ff4565b5f1981019190821161106557565b9190918281146111585761108c8354610417565b6001600160401b03811161047e576110ae816110a88454610417565b84610c39565b5f93601f82116001146110e75793819293945f926110dc575b50508160011b915f199060031b1c1916179055565b015490505f806110c7565b6110f9601f198316915f5260205f2090565b94611107845f5260205f2090565b91815b8181106111405750958360019596971061112857505050811b019055565b01545f1960f88460031b161c191690555f8080610d2c565b8783015484556001938401939092019160200161110a565b509050565b90610b6d5781810361116d575050565b815481546001600160a01b0319166001600160a01b03919091161781556104e09160019081019101611078565b600154801561121d575f19016111af816106a6565b610b6d57805f60019255016111c48154610417565b90816111d2575b5050600155565b601f82116001146111e9575f9150555b5f806111cb565b61120961121892825f526001601f60205f20920160051c82019101610c23565b5f908082528160208120915555565b6111e2565b634e487b7160e01b5f52603160045260245ffd5b903590601e198136030182121561021a57018035906001600160401b03821161021a57602001918160051b3603831361021a57565b1561126d57565b60405162461bcd60e51b815260206004820152601860248201527f496e76616c6964207369676e6174757265206c656e67746800000000000000006044820152606490fd5b90156106de57806112c291610d75565b9091565b9291926001600160401b03821161047e57604051916112ef601f8201601f191660200184610483565b82948184528183011161021a578281602093845f960137010152565b1561131257565b60405162461bcd60e51b815260206004820152601960248201527f496e76616c6964207369676e617475726520762076616c7565000000000000006044820152606490fd5b6040513d5f823e3d90fd5b1561136957565b60405162461bcd60e51b8152602060048201526011602482015270496e76616c6964207369676e617475726560781b6044820152606490fd5b908092918237015f815290565b90948a9996948896948294605c9d9a966bffffffffffffffffffffffff199060601b1685526014850152603484015260548301370191605483015f81523701926001600160401b0360c01b9060c01b1660548401528483013701015f815290565b80359061141c82610406565b6020810135607e198236030181121561021a5761143a9082016114c4565b9061145161144b6040830183611231565b90611568565b9161145f6060830183610d75565b61146e60808593950183610d75565b60a0849692960135906001600160401b038216820361021a576114be9661149c8660c06114b0980190610d75565b9590946040519a8b9960208b019d8e6113af565b03601f198101835282610483565b51902090565b6114ce8180610d75565b9091906020906114e083830184610d75565b938491906114f16040820182610d75565b919081606084930161150291610d75565b95869491956040519a898c9a8c8c019e8f378a01918b83015f81523701918883015f81523701918583015f815237018281015f905203808352016114be9082610483565b91908110156106de5760051b81013590605e198136030182121561021a570190565b6060915f915b818310611582575050506020815191012090565b9091926115fd61161861161e926114b06115cc6115a96115a38a8a8a611546565b80610d75565b89898c6115ba818484989798611546565b936115d6602096868880980190610d75565b9586949195611546565b96816115e76040998a810190610d75565b989099519d8e8d83829f51948593019101610545565b8b01918783013701918483015f8152370101915f83526113a2565b93611057565b919061156e56fe9016d09d72d40fdae2fd8ceac6b6234c7706214fd39c1cd1e609a0528c199300f0c57e16840df040f15088dc2f81fe391c3923bec73e23a9662efc9c229c6a00a2646970667358221220d3299e6d79f09a026c4ec91e36e10534302f90fa012c7059bf2b33c80f943b1464736f6c63430008140033","linkReferences":{}},"methodIdentifiers":{"_attestors(uint256)":"9ebf1987","_attestorsMapping(address)":"51022acb","encodeAttestation((address,(string,string,string,string),(string,string,string)[],string,string,uint64,string,(address,string)[],bytes[]))":"34c02b52","encodeRequest((string,string,string,string))":"ea831850","encodeResponse((string,string,string)[])":"128dd696","initialize(address)":"c4d66de8","owner()":"8da5cb5b","removeAttestor(address)":"b3912023","renounceOwnership()":"715018a6","setAttestor((address,string))":"0ef77946","transferOwnership(address)":"f2fde38b","verifyAttestation((address,(string,string,string,string),(string,string,string)[],string,string,uint64,string,(address,string)[],bytes[]))":"0f8bbf00"},"id":35}